8=FIX.4.4|9=73|35=A|34=1|49=SENDER|52=20260416-13:30:00.000|56=TARGET|98=0|108=30|141=Y|10=161|

8=FIX.4.4|9=55|35=0|34=2|49=SENDER|52=20260416-13:30:30.100|56=TARGET|10=079|
8=FIX.4.4|9=66|35=1|34=3|49=SENDER|52=20260416-13:31:00.200|56=TARGET|112=TEST-1|10=999|
8=FIX.4.4|9=999|35=0|34=4|49=TARGET|52=20260416-13:31:00.250|56=SENDER|112=TEST-1|10=199|

8=FIX.4.4|9=132|35=D|34=5|49=SENDER|52=20260416-13:32:00.000|56=TARGET|11=ORDER001|55=AAPL|54=1|38=100|40=2|44=150.00|59=0|60=20260416-13:32:00.000|10=080|
8=FIX.4.4|9=120|35=D|34=99|49=SENDER|52=20260416-13:35:00.000|56=TARGET|11=BADORDER|55=AAPL|54=1|38=|40=2|59=0|60=20260416-13:35:00.000|10=107|
