8=FIX.4.4|9=73|35=A|34=1|49=SENDER|52=20260416-13:30:00.000|56=TARGET|98=0|108=30|141=Y|10=161|
8=FIX.4.4|9=55|35=0|34=2|49=SENDER|52=20260416-13:30:30.100|56=TARGET|10=079|
8=FIX.4.4|9=66|35=1|34=3|49=SENDER|52=20260416-13:31:00.200|56=TARGET|112=TEST-1|10=194|
8=FIX.4.4|9=66|35=0|34=4|49=TARGET|52=20260416-13:31:00.250|56=SENDER|112=TEST-1|10=199|
8=FIX.4.4|9=132|35=D|34=5|49=SENDER|52=20260416-13:32:00.000|56=TARGET|11=ORDER001|55=AAPL|54=1|38=100|40=2|44=150.00|59=0|60=20260416-13:32:00.000|10=080|
8=FIX.4.4|9=144|35=8|34=6|49=TARGET|52=20260416-13:32:00.100|56=SENDER|37=EXEC001|11=ORDER001|17=E001|150=0|39=0|55=AAPL|54=1|38=100|32=0|31=0|151=100|14=0|6=0|10=072|
8=FIX.4.4|9=155|35=8|34=7|49=TARGET|52=20260416-13:32:05.500|56=SENDER|37=EXEC001|11=ORDER001|17=E002|150=F|39=1|55=AAPL|54=1|38=100|32=40|31=150.00|151=60|14=40|6=150.00|10=145|
8=FIX.4.4|9=155|35=8|34=8|49=TARGET|52=20260416-13:32:06.200|56=SENDER|37=EXEC001|11=ORDER001|17=E003|150=F|39=2|55=AAPL|54=1|38=100|32=60|31=150.00|151=0|14=100|6=150.00|10=139|
8=FIX.4.4|9=118|35=F|34=9|49=SENDER|52=20260416-13:33:00.000|56=TARGET|41=ORDER000|11=CANCEL001|55=MSFT|54=2|60=20260416-13:33:00.000|10=158|
8=FIX.4.4|9=73|35=5|34=10|49=SENDER|52=20260416-13:34:00.000|56=TARGET|58=Normal logout|10=081|
